{
  "contractName": "ListVoters",
  "abi": [
    {
      "constant": true,
      "inputs": [],
      "name": "voterNumber",
      "outputs": [
        {
          "name": "",
          "type": "uint256"
        }
      ],
      "payable": false,
      "stateMutability": "view",
      "type": "function"
    },
    {
      "constant": true,
      "inputs": [
        {
          "name": "",
          "type": "uint256"
        }
      ],
      "name": "voters",
      "outputs": [
        {
          "name": "id",
          "type": "uint256"
        },
        {
          "name": "age",
          "type": "uint256"
        },
        {
          "name": "name",
          "type": "string"
        },
        {
          "name": "voted",
          "type": "bool"
        }
      ],
      "payable": false,
      "stateMutability": "view",
      "type": "function"
    },
    {
      "inputs": [],
      "payable": false,
      "stateMutability": "nonpayable",
      "type": "constructor"
    },
    {
      "constant": false,
      "inputs": [
        {
          "name": "_name",
          "type": "string"
        }
      ],
      "name": "addVoter",
      "outputs": [],
      "payable": false,
      "stateMutability": "nonpayable",
      "type": "function"
    }
  ],
  "bytecode": "0x60806040526000805534801561001457600080fd5b506100596040518060400160405280600e81526020017f54696d6f746879204b696d616e6900000000000000000000000000000000000081525061005e60201b60201c565b610176565b6000805460019081018083556040805160808101825282815260176020808301918252828401888152606084018890529487528581529290952081518155945193850193909355905180519293926100bc92600285019201906100db565b50606091909101516003909101805460ff191691151591909117905550565b828054600181600116156101000203166002900490600052602060002090601f016020900481019282601f1061011c57805160ff1916838001178555610149565b82800160010185558215610149579182015b8281111561014957825182559160200191906001019061012e565b50610155929150610159565b5090565b61017391905b80821115610155576000815560010161015f565b90565b6103cb806101856000396000f3fe608060405234801561001057600080fd5b50600436106100415760003560e01c8063aca8489214610046578063d13c008d146100ee578063da58c7d914610108575b600080fd5b6100ec6004803603602081101561005c57600080fd5b81019060208101813564010000000081111561007757600080fd5b82018360208201111561008957600080fd5b803590602001918460018302840111640100000000831117156100ab57600080fd5b91908080601f0160208091040260200160405190810160405280939291908181526020018383808284376000920191909152509295506101b6945050505050565b005b6100f6610233565b60408051918252519081900360200190f35b6101256004803603602081101561011e57600080fd5b5035610239565b604051808581526020018481526020018060200183151515158152602001828103825284818151815260200191508051906020019080838360005b83811015610178578181015183820152602001610160565b50505050905090810190601f1680156101a55780820380516001836020036101000a031916815260200191505b509550505050505060405180910390f35b6000805460019081018083556040805160808101825282815260176020808301918252828401888152606084018890529487528581529290952081518155945193850193909355905180519293926102149260028501920190610304565b50606091909101516003909101805460ff191691151591909117905550565b60005481565b6001602052806000526040600020600091509050806000015490806001015490806002018054600181600116156101000203166002900480601f0160208091040260200160405190810160405280929190818152602001828054600181600116156101000203166002900480156102f15780601f106102c6576101008083540402835291602001916102f1565b820191906000526020600020905b8154815290600101906020018083116102d457829003601f168201915b5050506003909301549192505060ff1684565b828054600181600116156101000203166002900490600052602060002090601f016020900481019282601f1061034557805160ff1916838001178555610372565b82800160010185558215610372579182015b82811115610372578251825591602001919060010190610357565b5061037e929150610382565b5090565b61039c91905b8082111561037e5760008155600101610388565b9056fea165627a7a7230582096c6f30dcd0c87d383cde9daa12324c7d6521605f41d1c43e7af11acc4fe350a0029",
  "source": "pragma solidity ^0.5.0;\n\ncontract ListVoters {\n\n    // register voters and display them on the webpage\n\n    uint public voterNumber = 0; // the total number of registered voters\n\n    struct Voter{\n        uint id;\n        uint256 age;\n        string name;\n        bool voted;\n    }\n\n    constructor() public{\n        addVoter(\"Timothy Kimani\");\n    }\n\n    mapping(uint256 => Voter) public voters;\n\n    function addVoter(string memory _name) public {\n        voterNumber ++;\n        voters[voterNumber] = Voter(voterNumber, 23, _name,  false);\n    }\n}",
  "sourcePath": "/Volumes/Work/Code_Projects/Eth Various/contracts/ListVoters.sol",
  "compiler": {
    "name": "solc",
    "version": "0.5.8+commit.23d335f2.Emscripten.clang"
  },
  "schemaVersion": "3.0.16",
  "updatedAt": "2019-10-14T13:32:49.594Z",
  "devdoc": {
    "methods": {}
  },
  "userdoc": {
    "methods": {}
  }
}